{
  "contractName": "Uber",
  "abi": [
    {
      "constant": true,
      "inputs": [],
      "name": "owner",
      "outputs": [
        {
          "name": "",
          "type": "address"
        }
      ],
      "payable": false,
      "stateMutability": "view",
      "type": "function"
    },
    {
      "constant": true,
      "inputs": [],
      "name": "regFee",
      "outputs": [
        {
          "name": "",
          "type": "uint256"
        }
      ],
      "payable": false,
      "stateMutability": "view",
      "type": "function"
    },
    {
      "constant": true,
      "inputs": [],
      "name": "numDrivers",
      "outputs": [
        {
          "name": "",
          "type": "uint256"
        }
      ],
      "payable": false,
      "stateMutability": "view",
      "type": "function"
    },
    {
      "inputs": [
        {
          "name": "_regFee",
          "type": "uint256"
        }
      ],
      "payable": false,
      "stateMutability": "nonpayable",
      "type": "constructor"
    },
    {
      "anonymous": false,
      "inputs": [
        {
          "indexed": false,
          "name": "sender",
          "type": "address"
        },
        {
          "indexed": false,
          "name": "amount",
          "type": "uint256"
        }
      ],
      "name": "Collected",
      "type": "event"
    },
    {
      "anonymous": false,
      "inputs": [
        {
          "indexed": false,
          "name": "sender",
          "type": "address"
        }
      ],
      "name": "CabBooked",
      "type": "event"
    },
    {
      "anonymous": false,
      "inputs": [
        {
          "indexed": false,
          "name": "sender",
          "type": "address"
        }
      ],
      "name": "RequestSent",
      "type": "event"
    },
    {
      "anonymous": false,
      "inputs": [
        {
          "indexed": false,
          "name": "sender",
          "type": "address"
        }
      ],
      "name": "TripEnded",
      "type": "event"
    },
    {
      "constant": false,
      "inputs": [
        {
          "name": "_name",
          "type": "string"
        },
        {
          "name": "_license",
          "type": "string"
        },
        {
          "name": "_phoneno",
          "type": "uint256"
        }
      ],
      "name": "registerDriver",
      "outputs": [],
      "payable": true,
      "stateMutability": "payable",
      "type": "function"
    },
    {
      "constant": true,
      "inputs": [
        {
          "name": "id",
          "type": "uint256"
        }
      ],
      "name": "getDriverDetails",
      "outputs": [
        {
          "name": "",
          "type": "string"
        },
        {
          "name": "",
          "type": "uint256"
        },
        {
          "name": "",
          "type": "uint256"
        }
      ],
      "payable": false,
      "stateMutability": "view",
      "type": "function"
    },
    {
      "constant": true,
      "inputs": [],
      "name": "getCustomerDetails",
      "outputs": [
        {
          "name": "",
          "type": "address"
        },
        {
          "name": "",
          "type": "uint256"
        }
      ],
      "payable": false,
      "stateMutability": "view",
      "type": "function"
    },
    {
      "constant": true,
      "inputs": [
        {
          "name": "_latitude",
          "type": "int256"
        },
        {
          "name": "_longitude",
          "type": "int256"
        }
      ],
      "name": "getEstimatedFare",
      "outputs": [
        {
          "name": "res",
          "type": "uint256"
        }
      ],
      "payable": false,
      "stateMutability": "view",
      "type": "function"
    },
    {
      "constant": true,
      "inputs": [
        {
          "name": "_latitude",
          "type": "int256"
        },
        {
          "name": "_longitude",
          "type": "int256"
        }
      ],
      "name": "searchDrivers",
      "outputs": [
        {
          "name": "",
          "type": "uint256[]"
        }
      ],
      "payable": false,
      "stateMutability": "view",
      "type": "function"
    },
    {
      "constant": false,
      "inputs": [
        {
          "name": "id",
          "type": "uint256"
        }
      ],
      "name": "sendRequest",
      "outputs": [],
      "payable": false,
      "stateMutability": "nonpayable",
      "type": "function"
    },
    {
      "constant": false,
      "inputs": [
        {
          "name": "id",
          "type": "uint256"
        }
      ],
      "name": "cancelRequest",
      "outputs": [],
      "payable": false,
      "stateMutability": "nonpayable",
      "type": "function"
    },
    {
      "constant": true,
      "inputs": [],
      "name": "getRequest",
      "outputs": [
        {
          "name": "",
          "type": "address"
        }
      ],
      "payable": false,
      "stateMutability": "view",
      "type": "function"
    },
    {
      "constant": false,
      "inputs": [],
      "name": "acceptRequest",
      "outputs": [],
      "payable": false,
      "stateMutability": "nonpayable",
      "type": "function"
    },
    {
      "constant": false,
      "inputs": [],
      "name": "rejectRequest",
      "outputs": [],
      "payable": false,
      "stateMutability": "nonpayable",
      "type": "function"
    },
    {
      "constant": true,
      "inputs": [],
      "name": "isAccepted",
      "outputs": [
        {
          "name": "res",
          "type": "bool"
        }
      ],
      "payable": false,
      "stateMutability": "view",
      "type": "function"
    },
    {
      "constant": true,
      "inputs": [],
      "name": "cabBooked",
      "outputs": [
        {
          "name": "res",
          "type": "uint256"
        }
      ],
      "payable": false,
      "stateMutability": "view",
      "type": "function"
    },
    {
      "constant": false,
      "inputs": [
        {
          "name": "_fareperkm",
          "type": "uint256"
        },
        {
          "name": "_latitude",
          "type": "int256"
        },
        {
          "name": "_longitude",
          "type": "int256"
        }
      ],
      "name": "updateDriverDetails",
      "outputs": [],
      "payable": false,
      "stateMutability": "nonpayable",
      "type": "function"
    },
    {
      "constant": false,
      "inputs": [],
      "name": "quitDriving",
      "outputs": [],
      "payable": false,
      "stateMutability": "nonpayable",
      "type": "function"
    },
    {
      "constant": true,
      "inputs": [],
      "name": "isDriverValid",
      "outputs": [
        {
          "name": "res",
          "type": "bool"
        }
      ],
      "payable": false,
      "stateMutability": "view",
      "type": "function"
    },
    {
      "constant": false,
      "inputs": [
        {
          "name": "cost",
          "type": "uint256"
        }
      ],
      "name": "endTrip",
      "outputs": [],
      "payable": false,
      "stateMutability": "nonpayable",
      "type": "function"
    },
    {
      "constant": false,
      "inputs": [],
      "name": "paidDriver",
      "outputs": [],
      "payable": false,
      "stateMutability": "nonpayable",
      "type": "function"
    },
    {
      "constant": true,
      "inputs": [],
      "name": "isPaid",
      "outputs": [
        {
          "name": "res",
          "type": "bool"
        }
      ],
      "payable": false,
      "stateMutability": "view",
      "type": "function"
    }
  ],
  "bytecode": "0x608060405234801561001057600080fd5b5060405160208061390083398101806040528101908080519060200190929190505050336000806101000a81548173ffffffffffffffffffffffffffffffffffffffff021916908373ffffffffffffffffffffffffffffffffffffffff16021790555080600681905550506138768061008a6000396000f30060806040526004361061011d576000357c0100000000000000000000000000000000000000000000000000000000900463ffffffff16806315d4d56114610122578063209ebc08146101805780633015394c146101af57806331e70508146101dc57806334981849146102095780635051a5ec1461029557806360d17c08146102c457806367e845c4146102f15780638090c7ef1461031c57806388b8af3a146103675780638da5cb5b1461037e5780638df7888a146103d55780638fff20f314610404578063a9eff1031461042f578063b09fa41d146104e3578063baaca96d1461058f578063c2bb515f146105ba578063d8ef370e14610611578063e19695f714610628578063ecd6aac61461063f578063f8a29a8814610656575b600080fd5b34801561012e57600080fd5b50610137610697565b604051808373ffffffffffffffffffffffffffffffffffffffff1673ffffffffffffffffffffffffffffffffffffffff1681526020018281526020019250505060405180910390f35b34801561018c57600080fd5b50610195610820565b604051808215151515815260200191505060405180910390f35b3480156101bb57600080fd5b506101da60048036038101908080359060200190929190505050610956565b005b3480156101e857600080fd5b5061020760048036038101908080359060200190929190505050610c53565b005b34801561021557600080fd5b5061023e6004803603810190808035906020019092919080359060200190929190505050610fb2565b6040518080602001828103825283818151815260200191508051906020019060200280838360005b83811015610281578082015181840152602081019050610266565b505050509050019250505060405180910390f35b3480156102a157600080fd5b506102aa61128a565b604051808215151515815260200191505060405180910390f35b3480156102d057600080fd5b506102ef600480360381019080803590602001909291905050506113d2565b005b3480156102fd57600080fd5b50610306611866565b6040518082815260200191505060405180910390f35b34801561032857600080fd5b506103516004803603810190808035906020019092919080359060200190929190505050611a89565b6040518082815260200191505060405180910390f35b34801561037357600080fd5b5061037c611d17565b005b34801561038a57600080fd5b50610393611f17565b604051808273ffffffffffffffffffffffffffffffffffffffff1673ffffffffffffffffffffffffffffffffffffffff16815260200191505060405180910390f35b3480156103e157600080fd5b506103ea611f3c565b604051808215151515815260200191505060405180910390f35b34801561041057600080fd5b50610419611f96565b6040518082815260200191505060405180910390f35b34801561043b57600080fd5b5061045a60048036038101908080359060200190929190505050611f9c565b6040518080602001848152602001838152602001828103825285818151815260200191508051906020019080838360005b838110156104a657808201518184015260208101905061048b565b50505050905090810190601f1680156104d35780820380516001836020036101000a031916815260200191505b5094505050505060405180910390f35b61058d600480360381019080803590602001908201803590602001908080601f0160208091040260200160405190810160405280939291908181526020018383808284378201915050505050509192919290803590602001908201803590602001908080601f016020809104026020016040519081016040528093929190818152602001838380828437820191505050505050919291929080359060200190929190505050612114565b005b34801561059b57600080fd5b506105a4612408565b6040518082815260200191505060405180910390f35b3480156105c657600080fd5b506105cf61240e565b604051808273ffffffffffffffffffffffffffffffffffffffff1673ffffffffffffffffffffffffffffffffffffffff16815260200191505060405180910390f35b34801561061d57600080fd5b50610626612745565b005b34801561063457600080fd5b5061063d612b5a565b005b34801561064b57600080fd5b50610654612fd2565b005b34801561066257600080fd5b50610695600480360381019080803590602001909291908035906020019092919080359060200190929190505050613548565b005b60008060016000600260003373ffffffffffffffffffffffffffffffffffffffff1673ffffffffffffffffffffffffffffffffffffffff16815260200190815260200160002054815260200190815260200160002060080160009054906101000a900460ff16151515610772576040517f08c379a000000000000000000000000000000000000000000000000000000000815260040180806020018281038252601e8152602001807f43616e6e6f74207573652066726f6d206472697665722061646472657373000081525060200191505060405180910390fd5b600460003373ffffffffffffffffffffffffffffffffffffffff1673ffffffffffffffffffffffffffffffffffffffff16815260200190815260200160002060000160009054906101000a900473ffffffffffffffffffffffffffffffffffffffff16600460003373ffffffffffffffffffffffffffffffffffffffff1673ffffffffffffffffffffffffffffffffffffffff16815260200190815260200160002060010154915091509091565b600060016000600260003373ffffffffffffffffffffffffffffffffffffffff1673ffffffffffffffffffffffffffffffffffffffff16815260200190815260200160002054815260200190815260200160002060080160009054906101000a900460ff161515156108fa576040517f08c379a00000000000000000000000000000000000000000000000000000000081526004018080602001828103825260138152602001807f4e6f7420612076616c696420616464726573730000000000000000000000000081525060200191505060405180910390fd5b6000600460003373ffffffffffffffffffffffffffffffffffffffff1673ffffffffffffffffffffffffffffffffffffffff16815260200190815260200160002060010154141561094e5760019050610953565b600090505b90565b60016000600260003373ffffffffffffffffffffffffffffffffffffffff1673ffffffffffffffffffffffffffffffffffffffff16815260200190815260200160002054815260200190815260200160002060080160009054906101000a900460ff16151515610a2e576040517f08c379a00000000000000000000000000000000000000000000000000000000081526004018080602001828103825260138152602001807f4e6f7420612076616c696420616464726573730000000000000000000000000081525060200191505060405180910390fd5b60026001600083815260200190815260200160002060070154141515610abc576040517f08c379a00000000000000000000000000000000000000000000000000000000081526004018080602001828103825260118152602001807f43616e6e6f742063616e63656c206e6f7700000000000000000000000000000081525060200191505060405180910390fd5b60011515600460003373ffffffffffffffffffffffffffffffffffffffff1673ffffffffffffffffffffffffffffffffffffffff16815260200190815260200160002060020160009054906101000a900460ff161515141515610b87576040517f08c379a00000000000000000000000000000000000000000000000000000000081526004018080602001828103825260198152602001807f43616e6e6f742072656d6f76652072657175657374206e6f770000000000000081525060200191505060405180910390fd5b6001806000838152602001908152602001600020600701819055506000600460003373ffffffffffffffffffffffffffffffffffffffff1673ffffffffffffffffffffffffffffffffffffffff16815260200190815260200160002060020160006101000a81548160ff02191690831515021790555060006003600083815260200190815260200160002060006101000a81548173ffffffffffffffffffffffffffffffffffffffff021916908373ffffffffffffffffffffffffffffffffffffffff16021790555050565b60016000600260003373ffffffffffffffffffffffffffffffffffffffff1673ffffffffffffffffffffffffffffffffffffffff16815260200190815260200160002054815260200190815260200160002060080160009054906101000a900460ff16151515610d2b576040517f08c379a00000000000000000000000000000000000000000000000000000000081526004018080602001828103825260138152602001807f4e6f7420612076616c696420616464726573730000000000000000000000000081525060200191505060405180910390fd5b600180600083815260200190815260200160002060070154141515610db8576040517f08c379a000000000000000000000000000000000000000000000000000000000815260040180806020018281038252600e8152602001807f447269766572206973206275737900000000000000000000000000000000000081525060200191505060405180910390fd5b60001515600460003373ffffffffffffffffffffffffffffffffffffffff1673ffffffffffffffffffffffffffffffffffffffff16815260200190815260200160002060020160009054906101000a900460ff161515141515610e83576040517f08c379a00000000000000000000000000000000000000000000000000000000081526004018080602001828103825260128152602001807f43616e6e6f742072657175657374206e6f77000000000000000000000000000081525060200191505060405180910390fd5b6001600460003373ffffffffffffffffffffffffffffffffffffffff1673ffffffffffffffffffffffffffffffffffffffff16815260200190815260200160002060020160006101000a81548160ff021916908315150217905550336003600083815260200190815260200160002060006101000a81548173ffffffffffffffffffffffffffffffffffffffff021916908373ffffffffffffffffffffffffffffffffffffffff160217905550600260016000838152602001908152602001600020600701819055507f7302695c29e5b28566cefd8ed22997a6ac1bca8d68899aaa48f4565e4fdf98c633604051808273ffffffffffffffffffffffffffffffffffffffff1673ffffffffffffffffffffffffffffffffffffffff16815260200191505060405180910390a150565b60608060008060008060016000600260003373ffffffffffffffffffffffffffffffffffffffff1673ffffffffffffffffffffffffffffffffffffffff16815260200190815260200160002054815260200190815260200160002060080160009054906101000a900460ff16151515611093576040517f08c379a000000000000000000000000000000000000000000000000000000000815260040180806020018281038252601e8152602001807f43616e6e6f74207573652066726f6d206472697665722061646472657373000081525060200191505060405180910390fd5b60001515600460003373ffffffffffffffffffffffffffffffffffffffff1673ffffffffffffffffffffffffffffffffffffffff16815260200190815260200160002060020160009054906101000a900460ff16151514151561115e576040517f08c379a00000000000000000000000000000000000000000000000000000000081526004018080602001828103825260178152602001807f43616e6e6f7420726571756573742072696465206e6f7700000000000000000081525060200191505060405180910390fd5b600560405190808252806020026020018201604052801561118e5781602001602082028038833980820191505090505b50945060009350600192505b6005548311151561127c576001600084815260200190815260200160002060040154880360016000858152602001908152602001600020600401548903029150600160008481526020019081526020016000206005015487036001600085815260200190815260200160002060050154880302905060648183011280156112365750600180600085815260200190815260200160002060070154145b1561126f5782858581518110151561124a57fe5b90602001906020020181815250508380600101945050600584141561126e5761127c565b5b828060010193505061119a565b849550505050505092915050565b600060016000600260003373ffffffffffffffffffffffffffffffffffffffff1673ffffffffffffffffffffffffffffffffffffffff16815260200190815260200160002054815260200190815260200160002060080160009054906101000a900460ff161515611363576040517f08c379a00000000000000000000000000000000000000000000000000000000081526004018080602001828103825260138152602001807f4e6f7420612076616c696420616464726573730000000000000000000000000081525060200191505060405180910390fd5b600360016000600260003373ffffffffffffffffffffffffffffffffffffffff1673ffffffffffffffffffffffffffffffffffffffff1681526020019081526020016000205481526020019081526020016000206007015414156113ca57600190506113cf565b600090505b90565b60016000600260003373ffffffffffffffffffffffffffffffffffffffff1673ffffffffffffffffffffffffffffffffffffffff16815260200190815260200160002054815260200190815260200160002060080160009054906101000a900460ff1615156114a9576040517f08c379a00000000000000000000000000000000000000000000000000000000081526004018080602001828103825260138152602001807f4e6f7420612076616c696420616464726573730000000000000000000000000081525060200191505060405180910390fd5b600073ffffffffffffffffffffffffffffffffffffffff1660016000600260003373ffffffffffffffffffffffffffffffffffffffff1673ffffffffffffffffffffffffffffffffffffffff16815260200190815260200160002054815260200190815260200160002060010160009054906101000a900473ffffffffffffffffffffffffffffffffffffffff1673ffffffffffffffffffffffffffffffffffffffff16141515156115c3576040517f08c379a000000000000000000000000000000000000000000000000000000000815260040180806020018281038252600e8152602001807f43616e6e6f7420656e64206e6f7700000000000000000000000000000000000081525060200191505060405180910390fd5b806004600060016000600260003373ffffffffffffffffffffffffffffffffffffffff1673ffffffffffffffffffffffffffffffffffffffff16815260200190815260200160002054815260200190815260200160002060010160009054906101000a900473ffffffffffffffffffffffffffffffffffffffff1673ffffffffffffffffffffffffffffffffffffffff1673ffffffffffffffffffffffffffffffffffffffff16815260200190815260200160002060010181905550600060036000600260003373ffffffffffffffffffffffffffffffffffffffff1673ffffffffffffffffffffffffffffffffffffffff16815260200190815260200160002054815260200190815260200160002060006101000a81548173ffffffffffffffffffffffffffffffffffffffff021916908373ffffffffffffffffffffffffffffffffffffffff1602179055506001806000600260003373ffffffffffffffffffffffffffffffffffffffff1673ffffffffffffffffffffffffffffffffffffffff16815260200190815260200160002054815260200190815260200160002060070181905550600060016000600260003373ffffffffffffffffffffffffffffffffffffffff1673ffffffffffffffffffffffffffffffffffffffff16815260200190815260200160002054815260200190815260200160002060010160006101000a81548173ffffffffffffffffffffffffffffffffffffffff021916908373ffffffffffffffffffffffffffffffffffffffff1602179055507f1f49d355ae64bf9983c86bfc1fc4bd17826613f13338334e139492f2279e84d033604051808273ffffffffffffffffffffffffffffffffffffffff1673ffffffffffffffffffffffffffffffffffffffff16815260200191505060405180910390a150565b600060016000600260003373ffffffffffffffffffffffffffffffffffffffff1673ffffffffffffffffffffffffffffffffffffffff16815260200190815260200160002054815260200190815260200160002060080160009054906101000a900460ff16151515611940576040517f08c379a00000000000000000000000000000000000000000000000000000000081526004018080602001828103825260138152602001807f4e6f7420612076616c696420616464726573730000000000000000000000000081525060200191505060405180910390fd5b600073ffffffffffffffffffffffffffffffffffffffff16600460003373ffffffffffffffffffffffffffffffffffffffff1673ffffffffffffffffffffffffffffffffffffffff16815260200190815260200160002060000160009054906101000a900473ffffffffffffffffffffffffffffffffffffffff1673ffffffffffffffffffffffffffffffffffffffff16141515611a815760026000600460003373ffffffffffffffffffffffffffffffffffffffff1673ffffffffffffffffffffffffffffffffffffffff16815260200190815260200160002060000160009054906101000a900473ffffffffffffffffffffffffffffffffffffffff1673ffffffffffffffffffffffffffffffffffffffff1673ffffffffffffffffffffffffffffffffffffffff168152602001908152602001600020549050611a86565b600090505b90565b600080600080600060016000600260003373ffffffffffffffffffffffffffffffffffffffff1673ffffffffffffffffffffffffffffffffffffffff16815260200190815260200160002054815260200190815260200160002060080160009054906101000a900460ff16151515611b69576040517f08c379a000000000000000000000000000000000000000000000000000000000815260040180806020018281038252601e8152602001807f43616e6e6f74207573652066726f6d206472697665722061646472657373000081525060200191505060405180910390fd5b60001515600460003373ffffffffffffffffffffffffffffffffffffffff1673ffffffffffffffffffffffffffffffffffffffff16815260200190815260200160002060020160009054906101000a900460ff161515141515611c34576040517f08c379a00000000000000000000000000000000000000000000000000000000081526004018080602001828103825260178152602001807f43616e6e6f7420726571756573742072696465206e6f7700000000000000000081525060200191505060405180910390fd5b600192505b60055483111515611d0a57600160008481526020019081526020016000206004015487036001600085815260200190815260200160002060040154880302915060016000848152602001908152602001600020600501548603600160008581526020019081526020016000206005015487030290506064818301128015611cd55750600180600085815260200190815260200160002060070154145b15611cfd57611cfa84600160008681526020019081526020016000206003015461378c565b93505b8280600101935050611c39565b8394505050505092915050565b60016000600260003373ffffffffffffffffffffffffffffffffffffffff1673ffffffffffffffffffffffffffffffffffffffff16815260200190815260200160002054815260200190815260200160002060080160009054906101000a900460ff161515611dee576040517f08c379a00000000000000000000000000000000000000000000000000000000081526004018080602001828103825260138152602001807f4e6f7420612076616c696420616464726573730000000000000000000000000081525060200191505060405180910390fd5b6001806000600260003373ffffffffffffffffffffffffffffffffffffffff1673ffffffffffffffffffffffffffffffffffffffff16815260200190815260200160002054815260200190815260200160002060070154141515611eba576040517f08c379a000000000000000000000000000000000000000000000000000000000815260040180806020018281038252600e8152602001807f447269766572206973206275737900000000000000000000000000000000000081525060200191505060405180910390fd5b600060016000600260003373ffffffffffffffffffffffffffffffffffffffff1673ffffffffffffffffffffffffffffffffffffffff16815260200190815260200160002054815260200190815260200160002060070181905550565b6000809054906101000a900473ffffffffffffffffffffffffffffffffffffffff1681565b600080600260003373ffffffffffffffffffffffffffffffffffffffff1673ffffffffffffffffffffffffffffffffffffffff168152602001908152602001600020541115611f8e5760019050611f93565b600090505b90565b60065481565b6060600080600084118015611fb357506005548411155b1515612027576040517f08c379a00000000000000000000000000000000000000000000000000000000081526004018080602001828103825260148152602001807f496e76616c6964206964206f662064726976657200000000000000000000000081525060200191505060405180910390fd5b6001600085815260200190815260200160002060000160016000868152602001908152602001600020600301546001600087815260200190815260200160002060060154828054600181600116156101000203166002900480601f0160208091040260200160405190810160405280929190818152602001828054600181600116156101000203166002900480156121005780601f106120d557610100808354040283529160200191612100565b820191906000526020600020905b8154815290600101906020018083116120e357829003601f168201915b505050505092509250925092509193909250565b60016000600260003373ffffffffffffffffffffffffffffffffffffffff1673ffffffffffffffffffffffffffffffffffffffff16815260200190815260200160002054815260200190815260200160002060080160009054906101000a900460ff161515156121ec576040517f08c379a00000000000000000000000000000000000000000000000000000000081526004018080602001828103825260138152602001807f4e6f7420612076616c696420616464726573730000000000000000000000000081525060200191505060405180910390fd5b6006543410151515612266576040517f08c379a000000000000000000000000000000000000000000000000000000000815260040180806020018281038252601d8152602001807f496e73756666696369656e7420526567697374726174696f6e2046656500000081525060200191505060405180910390fd5b600160055401600581905550600554600260003373ffffffffffffffffffffffffffffffffffffffff1673ffffffffffffffffffffffffffffffffffffffff1681526020019081526020016000208190555061012060405190810160405280848152602001600073ffffffffffffffffffffffffffffffffffffffff168152602001838152602001600081526020016000815260200160008152602001828152602001600081526020016001151581525060016000600554815260200190815260200160002060008201518160000190805190602001906123489291906137a5565b5060208201518160010160006101000a81548173ffffffffffffffffffffffffffffffffffffffff021916908373ffffffffffffffffffffffffffffffffffffffff16021790555060408201518160020190805190602001906123ac9291906137a5565b50606082015181600301556080820151816004015560a0820151816005015560c0820151816006015560e082015181600701556101008201518160080160006101000a81548160ff021916908315150217905550905050505050565b60055481565b600060016000600260003373ffffffffffffffffffffffffffffffffffffffff1673ffffffffffffffffffffffffffffffffffffffff16815260200190815260200160002054815260200190815260200160002060080160009054906101000a900460ff1615156124e7576040517f08c379a00000000000000000000000000000000000000000000000000000000081526004018080602001828103825260138152602001807f4e6f7420612076616c696420616464726573730000000000000000000000000081525060200191505060405180910390fd5b600073ffffffffffffffffffffffffffffffffffffffff1660016000600260003373ffffffffffffffffffffffffffffffffffffffff1673ffffffffffffffffffffffffffffffffffffffff16815260200190815260200160002054815260200190815260200160002060010160009054906101000a900473ffffffffffffffffffffffffffffffffffffffff1673ffffffffffffffffffffffffffffffffffffffff16141515612600576040517f08c379a000000000000000000000000000000000000000000000000000000000815260040180806020018281038252601c8152602001807f43616e6e6f742072657175657374207768696c652064726976696e670000000081525060200191505060405180910390fd5b600260016000600260003373ffffffffffffffffffffffffffffffffffffffff1673ffffffffffffffffffffffffffffffffffffffff168152602001908152602001600020548152602001908152602001600020600701541415156126cd576040517f08c379a00000000000000000000000000000000000000000000000000000000081526004018080602001828103825260158152602001807f43616e6e6f742067657452657175657374206e6f77000000000000000000000081525060200191505060405180910390fd5b60036000600260003373ffffffffffffffffffffffffffffffffffffffff1673ffffffffffffffffffffffffffffffffffffffff16815260200190815260200160002054815260200190815260200160002060009054906101000a900473ffffffffffffffffffffffffffffffffffffffff16905090565b60016000600260003373ffffffffffffffffffffffffffffffffffffffff1673ffffffffffffffffffffffffffffffffffffffff16815260200190815260200160002054815260200190815260200160002060080160009054906101000a900460ff1615151561281d576040517f08c379a00000000000000000000000000000000000000000000000000000000081526004018080602001828103825260138152602001807f4e6f7420612076616c696420616464726573730000000000000000000000000081525060200191505060405180910390fd5b600073ffffffffffffffffffffffffffffffffffffffff16600460003373ffffffffffffffffffffffffffffffffffffffff1673ffffffffffffffffffffffffffffffffffffffff16815260200190815260200160002060000160009054906101000a900473ffffffffffffffffffffffffffffffffffffffff1673ffffffffffffffffffffffffffffffffffffffff1614151515612924576040517f08c379a000000000000000000000000000000000000000000000000000000000815260040180806020018281038252600a8152602001807f43616e6e6f74207061790000000000000000000000000000000000000000000081525060200191505060405180910390fd5b7f8c22f554c81b54107cd95e734e4ef45767214974a540f34ea4a4f8c3fc7b13c3600460003373ffffffffffffffffffffffffffffffffffffffff1673ffffffffffffffffffffffffffffffffffffffff16815260200190815260200160002060000160009054906101000a900473ffffffffffffffffffffffffffffffffffffffff16600460003373ffffffffffffffffffffffffffffffffffffffff1673ffffffffffffffffffffffffffffffffffffffff16815260200190815260200160002060010154604051808373ffffffffffffffffffffffffffffffffffffffff1673ffffffffffffffffffffffffffffffffffffffff1681526020018281526020019250505060405180910390a16000600460003373ffffffffffffffffffffffffffffffffffffffff1673ffffffffffffffffffffffffffffffffffffffff168152602001908152602001600020600101819055506000600460003373ffffffffffffffffffffffffffffffffffffffff1673ffffffffffffffffffffffffffffffffffffffff16815260200190815260200160002060000160006101000a81548173ffffffffffffffffffffffffffffffffffffffff021916908373ffffffffffffffffffffffffffffffffffffffff1602179055506000600460003373ffffffffffffffffffffffffffffffffffffffff1673ffffffffffffffffffffffffffffffffffffffff16815260200190815260200160002060020160006101000a81548160ff021916908315150217905550565b60016000600260003373ffffffffffffffffffffffffffffffffffffffff1673ffffffffffffffffffffffffffffffffffffffff16815260200190815260200160002054815260200190815260200160002060080160009054906101000a900460ff161515612c31576040517f08c379a00000000000000000000000000000000000000000000000000000000081526004018080602001828103825260138152602001807f4e6f7420612076616c696420616464726573730000000000000000000000000081525060200191505060405180910390fd5b600073ffffffffffffffffffffffffffffffffffffffff1660016000600260003373ffffffffffffffffffffffffffffffffffffffff1673ffffffffffffffffffffffffffffffffffffffff16815260200190815260200160002054815260200190815260200160002060010160009054906101000a900473ffffffffffffffffffffffffffffffffffffffff1673ffffffffffffffffffffffffffffffffffffffff16141515612d4a576040517f08c379a000000000000000000000000000000000000000000000000000000000815260040180806020018281038252601c8152602001807f43616e6e6f742072657175657374207768696c652064726976696e670000000081525060200191505060405180910390fd5b600260016000600260003373ffffffffffffffffffffffffffffffffffffffff1673ffffffffffffffffffffffffffffffffffffffff16815260200190815260200160002054815260200190815260200160002060070154141515612e17576040517f08c379a00000000000000000000000000000000000000000000000000000000081526004018080602001828103825260118152602001807f43616e6e6f742072656a656374206e6f7700000000000000000000000000000081525060200191505060405180910390fd5b6001806000600260003373ffffffffffffffffffffffffffffffffffffffff1673ffffffffffffffffffffffffffffffffffffffff1681526020019081526020016000205481526020019081526020016000206007018190555060006004600060036000600260003373ffffffffffffffffffffffffffffffffffffffff1673ffffffffffffffffffffffffffffffffffffffff16815260200190815260200160002054815260200190815260200160002060009054906101000a900473ffffffffffffffffffffffffffffffffffffffff1673ffffffffffffffffffffffffffffffffffffffff1673ffffffffffffffffffffffffffffffffffffffff16815260200190815260200160002060020160006101000a81548160ff021916908315150217905550600060036000600260003373ffffffffffffffffffffffffffffffffffffffff1673ffffffffffffffffffffffffffffffffffffffff16815260200190815260200160002054815260200190815260200160002060006101000a81548173ffffffffffffffffffffffffffffffffffffffff021916908373ffffffffffffffffffffffffffffffffffffffff160217905550565b60016000600260003373ffffffffffffffffffffffffffffffffffffffff1673ffffffffffffffffffffffffffffffffffffffff16815260200190815260200160002054815260200190815260200160002060080160009054906101000a900460ff1615156130a9576040517f08c379a00000000000000000000000000000000000000000000000000000000081526004018080602001828103825260138152602001807f4e6f7420612076616c696420616464726573730000000000000000000000000081525060200191505060405180910390fd5b600073ffffffffffffffffffffffffffffffffffffffff1660016000600260003373ffffffffffffffffffffffffffffffffffffffff1673ffffffffffffffffffffffffffffffffffffffff16815260200190815260200160002054815260200190815260200160002060010160009054906101000a900473ffffffffffffffffffffffffffffffffffffffff1673ffffffffffffffffffffffffffffffffffffffff161415156131c2576040517f08c379a000000000000000000000000000000000000000000000000000000000815260040180806020018281038252601c8152602001807f43616e6e6f742072657175657374207768696c652064726976696e670000000081525060200191505060405180910390fd5b600260016000600260003373ffffffffffffffffffffffffffffffffffffffff1673ffffffffffffffffffffffffffffffffffffffff1681526020019081526020016000205481526020019081526020016000206007015414151561328f576040517f08c379a00000000000000000000000000000000000000000000000000000000081526004018080602001828103825260118152602001807f43616e6e6f7420616363657074206e6f7700000000000000000000000000000081525060200191505060405180910390fd5b60036000600260003373ffffffffffffffffffffffffffffffffffffffff1673ffffffffffffffffffffffffffffffffffffffff16815260200190815260200160002054815260200190815260200160002060009054906101000a900473ffffffffffffffffffffffffffffffffffffffff1660016000600260003373ffffffffffffffffffffffffffffffffffffffff1673ffffffffffffffffffffffffffffffffffffffff16815260200190815260200160002054815260200190815260200160002060010160006101000a81548173ffffffffffffffffffffffffffffffffffffffff021916908373ffffffffffffffffffffffffffffffffffffffff160217905550600360016000600260003373ffffffffffffffffffffffffffffffffffffffff1673ffffffffffffffffffffffffffffffffffffffff16815260200190815260200160002054815260200190815260200160002060070181905550336004600060036000600260003373ffffffffffffffffffffffffffffffffffffffff1673ffffffffffffffffffffffffffffffffffffffff16815260200190815260200160002054815260200190815260200160002060009054906101000a900473ffffffffffffffffffffffffffffffffffffffff1673ffffffffffffffffffffffffffffffffffffffff1673ffffffffffffffffffffffffffffffffffffffff16815260200190815260200160002060000160006101000a81548173ffffffffffffffffffffffffffffffffffffffff021916908373ffffffffffffffffffffffffffffffffffffffff1602179055507f63086e1a2add7023f65e44471f60f64fb52ba9986e7ffad254a48894002ae63933604051808273ffffffffffffffffffffffffffffffffffffffff1673ffffffffffffffffffffffffffffffffffffffff16815260200191505060405180910390a1565b60016000600260003373ffffffffffffffffffffffffffffffffffffffff1673ffffffffffffffffffffffffffffffffffffffff16815260200190815260200160002054815260200190815260200160002060080160009054906101000a900460ff16151561361f576040517f08c379a00000000000000000000000000000000000000000000000000000000081526004018080602001828103825260138152602001807f4e6f7420612076616c696420616464726573730000000000000000000000000081525060200191505060405180910390fd5b8160016000600260003373ffffffffffffffffffffffffffffffffffffffff1673ffffffffffffffffffffffffffffffffffffffff168152602001908152602001600020548152602001908152602001600020600401819055508060016000600260003373ffffffffffffffffffffffffffffffffffffffff1673ffffffffffffffffffffffffffffffffffffffff168152602001908152602001600020548152602001908152602001600020600501819055508260016000600260003373ffffffffffffffffffffffffffffffffffffffff1673ffffffffffffffffffffffffffffffffffffffff168152602001908152602001600020548152602001908152602001600020600301819055506001806000600260003373ffffffffffffffffffffffffffffffffffffffff1673ffffffffffffffffffffffffffffffffffffffff16815260200190815260200160002054815260200190815260200160002060070181905550505050565b600081831161379b578161379d565b825b905092915050565b828054600181600116156101000203166002900490600052602060002090601f016020900481019282601f106137e657805160ff1916838001178555613814565b82800160010185558215613814579182015b828111156138135782518255916020019190600101906137f8565b5b5090506138219190613825565b5090565b61384791905b8082111561384357600081600090555060010161382b565b5090565b905600a165627a7a72305820433a1aa9339c31ddee5773f0a3937b6e50e01bb006bd8928e9c809ee79a3b1e70029",
  "source": "pragma solidity ^0.4.24;\n\ncontract Uber {\n\n  address public owner;\n  \n  struct Driver {\n    string name;\n    address customerAddr;\n    string license;\n    uint farePerKm;\n    int latitude;\n    int longitude;\n    uint phoneNo;\n    int status;\n    bool valid;\n  }\n\n  struct Customer {\n    address driverAddr;\n    uint amountToPay;\n    bool isBusy;\n  }\n  \n  mapping(uint => Driver)  driverList;\n  mapping (address => uint) mapDriver;\n  mapping(uint => address) reqList;\n  mapping (address => Customer) customer;\n\n  event Collected(address sender,uint amount);\n  event CabBooked(address sender);\n  event RequestSent(address sender);\n  event TripEnded(address sender);\n\n\n  uint public numDrivers;\n  uint public regFee;\n\n  //status = 0,1,2,3  new,ready,onrequest,accepted\n\n  modifier restricted() {\n    if (msg.sender == owner) _;\n  }\n\n  constructor(uint _regFee) public {\n    owner = msg.sender;\n    regFee = _regFee;\n  }\n\n  function registerDriver(string _name,string _license,uint _phoneno) public payable {\n      require (!driverList[mapDriver[msg.sender]].valid,\"Not a valid address\");\n      require (msg.value >= regFee,\"Insufficient Registration Fee\");\n            \n      numDrivers = numDrivers + 1;\n      mapDriver[msg.sender] = numDrivers;\n      driverList[numDrivers] = Driver({\n        name : _name,\n        customerAddr : address(0),\n        license : _license,\n        farePerKm : 0,\n        latitude : 0,\n        longitude : 0,\n        phoneNo : _phoneno,\n        status : 0,\n        valid  : true\n      });\n  }\n \n  function getDriverDetails (uint id) public view returns(string,uint,uint)  {\n    require (id >0 && id <=numDrivers,\"Invalid id of driver\");\n\n    return (driverList[id].name,driverList[id].farePerKm,driverList[id].phoneNo);\n  }\n\n  function getCustomerDetails() public view returns(address,uint)  {\n    require (!driverList[mapDriver[msg.sender]].valid,\"Cannot use from driver address\");\n    \n    return (customer[msg.sender].driverAddr,customer[msg.sender].amountToPay);\n  }\n  \n \n  \n  function max(uint a, uint b) private pure returns (uint) {\n        return a > b ? a : b;\n  }\n\n  function getEstimatedFare (int _latitude,int _longitude) public view returns(uint res)  {\n    require (!driverList[mapDriver[msg.sender]].valid,\"Cannot use from driver address\");\n    require (customer[msg.sender].isBusy==false,\"Cannot request ride now\");\n    \n    uint fare;\n    for(uint i=1;i<=numDrivers;i++){\n        int disLat = (_latitude - driverList[i].latitude) * (_latitude - driverList[i].latitude);\n        int disLon = (_longitude - driverList[i].longitude) * (_longitude - driverList[i].longitude);\n        if(disLat + disLon < 100 && driverList[i].status==1)\n          {\n            fare = max(fare,driverList[i].farePerKm);\n          }\n      }\n    return fare;  \n  }\n  \n\n  function searchDrivers(int _latitude,int _longitude) public view returns(uint[]){\n      require (!driverList[mapDriver[msg.sender]].valid,\"Cannot use from driver address\");\n      require (customer[msg.sender].isBusy==false,\"Cannot request ride now\");\n      //returns driver id\n      uint[] memory requestList = new uint[](5);\n      uint count = 0;\n      for(uint i=1;i<=numDrivers;i++){\n        int disLat = (_latitude - driverList[i].latitude) * (_latitude - driverList[i].latitude);\n        int disLon = (_longitude - driverList[i].longitude) * (_longitude - driverList[i].longitude);\n        if(disLat + disLon < 100 && driverList[i].status==1)\n          {\n            requestList[count] = i;\n            count++;\n            if(count==5)\n              break;\n          }\n      } \n      return requestList;\n  }\n\n  //Called by user\n  function sendRequest (uint id) public {\n    require (!driverList[mapDriver[msg.sender]].valid,\"Not a valid address\");\n    require (driverList[id].status==1,\"Driver is busy\");\n    require (customer[msg.sender].isBusy==false,\"Cannot request now\");\n\n    customer[msg.sender].isBusy = true; \n    reqList[id] = msg.sender;\n    driverList[id].status = 2;       \n    emit RequestSent(msg.sender);        \n  }\n\n  //Called by user\n  function cancelRequest(uint id) public {\n    require (!driverList[mapDriver[msg.sender]].valid,\"Not a valid address\");\n    require (driverList[id].status==2,\"Cannot cancel now\");\n    require (customer[msg.sender].isBusy==true,\"Cannot remove request now\");\n\n    driverList[id].status = 1;\n    customer[msg.sender].isBusy = false;\n    reqList[id] = address(0);\n  }\n  \n  //Called by driver\n  function getRequest() public view returns(address)  {\n    require (driverList[mapDriver[msg.sender]].valid,\"Not a valid address\");\n    require (driverList[mapDriver[msg.sender]].customerAddr==address(0),\"Cannot request while driving\");\n    require (driverList[mapDriver[msg.sender]].status==2,\"Cannot getRequest now\");\n    \n    return reqList[mapDriver[msg.sender]];  \n  }\n  \n  //Called by driver\n  function acceptRequest() public {\n    require (driverList[mapDriver[msg.sender]].valid,\"Not a valid address\");\n    require (driverList[mapDriver[msg.sender]].customerAddr==address(0),\"Cannot request while driving\");\n    require (driverList[mapDriver[msg.sender]].status==2,\"Cannot accept now\");\n\n    driverList[mapDriver[msg.sender]].customerAddr = reqList[mapDriver[msg.sender]];\n    driverList[mapDriver[msg.sender]].status = 3;\n    customer[reqList[mapDriver[msg.sender]]].driverAddr = msg.sender;\n    emit CabBooked(msg.sender);\n  }\n\n  //Called by driver\n  function rejectRequest() public {\n    require (driverList[mapDriver[msg.sender]].valid,\"Not a valid address\");\n    require (driverList[mapDriver[msg.sender]].customerAddr==address(0),\"Cannot request while driving\");\n    require (driverList[mapDriver[msg.sender]].status==2,\"Cannot reject now\");\n\n    driverList[mapDriver[msg.sender]].status = 1;\n    customer[reqList[mapDriver[msg.sender]]].isBusy = false;\n    reqList[mapDriver[msg.sender]] = address(0);\n  }\n\n  //called by driver\n  function isAccepted() public view returns(bool res)  {\n    require (driverList[mapDriver[msg.sender]].valid,\"Not a valid address\");\n    if(driverList[mapDriver[msg.sender]].status==3)\n      return true;\n    else\n      return false;  \n  }\n  \n  function cabBooked() public view returns(uint res){\n    require (!driverList[mapDriver[msg.sender]].valid,\"Not a valid address\");\n    if(customer[msg.sender].driverAddr!=address(0))\n      return mapDriver[customer[msg.sender].driverAddr];\n    else\n      return 0;      \n  }\n  \n\n  function updateDriverDetails(uint _fareperkm,int _latitude,int _longitude) public {\n    require (driverList[mapDriver[msg.sender]].valid,\"Not a valid address\");\n\n    driverList[mapDriver[msg.sender]].latitude = _latitude;\n    driverList[mapDriver[msg.sender]].longitude = _longitude;\n    driverList[mapDriver[msg.sender]].farePerKm = _fareperkm;\n    driverList[mapDriver[msg.sender]].status = 1;\n  }\n\n  function quitDriving() public {\n    require (driverList[mapDriver[msg.sender]].valid,\"Not a valid address\");\n    require (driverList[mapDriver[msg.sender]].status==1,\"Driver is busy\");\n\n    driverList[mapDriver[msg.sender]].status = 0;\n  }\n\n  function isDriverValid() public view returns(bool res) {\n    if(mapDriver[msg.sender]>0)\n      return true;\n    else\n      return false;  \n  }\n  \n   \n  function endTrip(uint cost) public {\n    require (driverList[mapDriver[msg.sender]].valid,\"Not a valid address\");\n    require (driverList[mapDriver[msg.sender]].customerAddr!=address(0),\"Cannot end now\");\n    \n    customer[driverList[mapDriver[msg.sender]].customerAddr].amountToPay = cost;\n    reqList[mapDriver[msg.sender]] = address(0);\n    driverList[mapDriver[msg.sender]].status = 1;\n    driverList[mapDriver[msg.sender]].customerAddr = address(0);\n    emit TripEnded(msg.sender);\n  }\n\n  function paidDriver() public {\n    require (!driverList[mapDriver[msg.sender]].valid,\"Not a valid address\");\n    require (customer[msg.sender].driverAddr!=address(0),\"Cannot pay\");\n\n    emit Collected(customer[msg.sender].driverAddr,customer[msg.sender].amountToPay);\n    customer[msg.sender].amountToPay = 0;\n    customer[msg.sender].driverAddr = address(0);\n    customer[msg.sender].isBusy = false; \n  }\n\n  function isPaid() public view returns(bool res) {\n    require (!driverList[mapDriver[msg.sender]].valid,\"Not a valid address\");\n    if(customer[msg.sender].amountToPay == 0)\n      return true;\n     else\n     return false; \n  }\n  \n  \n\n\n}\n",
  "sourcePath": "/home/vishal/blockchains/Decentralized_Uber/contracts/Uber.sol",
  "compiler": {
    "name": "solc",
    "version": "0.4.24+commit.e67f0147.Emscripten.clang"
  },
  "schemaVersion": "2.0.1",
  "updatedAt": "2018-11-12T18:23:23.290Z"
}