{
  "contractName": "Uber",
  "abi": [
    {
      "constant": true,
      "inputs": [],
      "name": "owner",
      "outputs": [
        {
          "name": "",
          "type": "address"
        }
      ],
      "payable": false,
      "stateMutability": "view",
      "type": "function"
    },
    {
      "constant": true,
      "inputs": [],
      "name": "regFee",
      "outputs": [
        {
          "name": "",
          "type": "uint256"
        }
      ],
      "payable": false,
      "stateMutability": "view",
      "type": "function"
    },
    {
      "constant": true,
      "inputs": [],
      "name": "numDrivers",
      "outputs": [
        {
          "name": "",
          "type": "uint256"
        }
      ],
      "payable": false,
      "stateMutability": "view",
      "type": "function"
    },
    {
      "inputs": [
        {
          "name": "_regFee",
          "type": "uint256"
        }
      ],
      "payable": false,
      "stateMutability": "nonpayable",
      "type": "constructor"
    },
    {
      "anonymous": false,
      "inputs": [
        {
          "indexed": false,
          "name": "sender",
          "type": "address"
        },
        {
          "indexed": false,
          "name": "amount",
          "type": "uint256"
        }
      ],
      "name": "Collected",
      "type": "event"
    },
    {
      "anonymous": false,
      "inputs": [
        {
          "indexed": false,
          "name": "sender",
          "type": "address"
        }
      ],
      "name": "CabBooked",
      "type": "event"
    },
    {
      "anonymous": false,
      "inputs": [
        {
          "indexed": false,
          "name": "sender",
          "type": "address"
        }
      ],
      "name": "RequestSent",
      "type": "event"
    },
    {
      "anonymous": false,
      "inputs": [
        {
          "indexed": false,
          "name": "sender",
          "type": "address"
        }
      ],
      "name": "RequestCancel",
      "type": "event"
    },
    {
      "anonymous": false,
      "inputs": [
        {
          "indexed": false,
          "name": "sender",
          "type": "address"
        }
      ],
      "name": "TripEnded",
      "type": "event"
    },
    {
      "constant": false,
      "inputs": [
        {
          "name": "_name",
          "type": "string"
        },
        {
          "name": "_license",
          "type": "string"
        },
        {
          "name": "_phoneno",
          "type": "uint256"
        }
      ],
      "name": "registerDriver",
      "outputs": [],
      "payable": true,
      "stateMutability": "payable",
      "type": "function"
    },
    {
      "constant": true,
      "inputs": [
        {
          "name": "id",
          "type": "uint256"
        }
      ],
      "name": "getDriverDetails",
      "outputs": [
        {
          "name": "",
          "type": "string"
        },
        {
          "name": "",
          "type": "uint256"
        },
        {
          "name": "",
          "type": "uint256"
        }
      ],
      "payable": false,
      "stateMutability": "view",
      "type": "function"
    },
    {
      "constant": true,
      "inputs": [],
      "name": "getCustomerDetails",
      "outputs": [
        {
          "name": "",
          "type": "address"
        },
        {
          "name": "",
          "type": "uint256"
        }
      ],
      "payable": false,
      "stateMutability": "view",
      "type": "function"
    },
    {
      "constant": true,
      "inputs": [
        {
          "name": "_latitude",
          "type": "int256"
        },
        {
          "name": "_longitude",
          "type": "int256"
        }
      ],
      "name": "getEstimatedFare",
      "outputs": [
        {
          "name": "res",
          "type": "uint256"
        }
      ],
      "payable": false,
      "stateMutability": "view",
      "type": "function"
    },
    {
      "constant": true,
      "inputs": [
        {
          "name": "_latitude",
          "type": "int256"
        },
        {
          "name": "_longitude",
          "type": "int256"
        }
      ],
      "name": "searchDrivers",
      "outputs": [
        {
          "name": "",
          "type": "uint256[]"
        }
      ],
      "payable": false,
      "stateMutability": "view",
      "type": "function"
    },
    {
      "constant": false,
      "inputs": [
        {
          "name": "id",
          "type": "uint256"
        }
      ],
      "name": "sendRequest",
      "outputs": [],
      "payable": false,
      "stateMutability": "nonpayable",
      "type": "function"
    },
    {
      "constant": false,
      "inputs": [
        {
          "name": "id",
          "type": "uint256"
        }
      ],
      "name": "cancelRequest",
      "outputs": [],
      "payable": false,
      "stateMutability": "nonpayable",
      "type": "function"
    },
    {
      "constant": true,
      "inputs": [],
      "name": "getRequest",
      "outputs": [
        {
          "name": "",
          "type": "address"
        }
      ],
      "payable": false,
      "stateMutability": "view",
      "type": "function"
    },
    {
      "constant": false,
      "inputs": [],
      "name": "acceptRequest",
      "outputs": [],
      "payable": false,
      "stateMutability": "nonpayable",
      "type": "function"
    },
    {
      "constant": false,
      "inputs": [],
      "name": "rejectRequest",
      "outputs": [],
      "payable": false,
      "stateMutability": "nonpayable",
      "type": "function"
    },
    {
      "constant": true,
      "inputs": [],
      "name": "isAccepted",
      "outputs": [
        {
          "name": "res",
          "type": "bool"
        }
      ],
      "payable": false,
      "stateMutability": "view",
      "type": "function"
    },
    {
      "constant": true,
      "inputs": [],
      "name": "cabBooked",
      "outputs": [
        {
          "name": "res",
          "type": "uint256"
        }
      ],
      "payable": false,
      "stateMutability": "view",
      "type": "function"
    },
    {
      "constant": false,
      "inputs": [
        {
          "name": "_fareperkm",
          "type": "uint256"
        },
        {
          "name": "_latitude",
          "type": "int256"
        },
        {
          "name": "_longitude",
          "type": "int256"
        }
      ],
      "name": "updateDriverDetails",
      "outputs": [],
      "payable": false,
      "stateMutability": "nonpayable",
      "type": "function"
    },
    {
      "constant": false,
      "inputs": [],
      "name": "quitDriving",
      "outputs": [],
      "payable": false,
      "stateMutability": "nonpayable",
      "type": "function"
    },
    {
      "constant": true,
      "inputs": [],
      "name": "isDriverValid",
      "outputs": [
        {
          "name": "res",
          "type": "bool"
        }
      ],
      "payable": false,
      "stateMutability": "view",
      "type": "function"
    },
    {
      "constant": false,
      "inputs": [
        {
          "name": "cost",
          "type": "uint256"
        }
      ],
      "name": "endTrip",
      "outputs": [],
      "payable": false,
      "stateMutability": "nonpayable",
      "type": "function"
    },
    {
      "constant": false,
      "inputs": [],
      "name": "paidDriver",
      "outputs": [],
      "payable": false,
      "stateMutability": "nonpayable",
      "type": "function"
    },
    {
      "constant": true,
      "inputs": [],
      "name": "isPaid",
      "outputs": [
        {
          "name": "res",
          "type": "bool"
        }
      ],
      "payable": false,
      "stateMutability": "view",
      "type": "function"
    },
    {
      "constant": true,
      "inputs": [],
      "name": "getDriverFare",
      "outputs": [
        {
          "name": "res",
          "type": "uint256"
        }
      ],
      "payable": false,
      "stateMutability": "view",
      "type": "function"
    }
  ],
  "bytecode": "0x608060405234801561001057600080fd5b50604051602080613acd83398101806040528101908080519060200190929190505050336000806101000a81548173ffffffffffffffffffffffffffffffffffffffff021916908373ffffffffffffffffffffffffffffffffffffffff1602179055508060068190555050613a438061008a6000396000f300608060405260043610610128576000357c0100000000000000000000000000000000000000000000000000000000900463ffffffff16806315d4d5611461012d578063209ebc081461018b5780632b987b9f146101ba5780633015394c146101e557806331e7050814610212578063349818491461023f5780635051a5ec146102cb57806360d17c08146102fa57806367e845c4146103275780638090c7ef1461035257806388b8af3a1461039d5780638da5cb5b146103b45780638df7888a1461040b5780638fff20f31461043a578063a9eff10314610465578063b09fa41d14610519578063baaca96d146105c5578063c2bb515f146105f0578063d8ef370e14610647578063e19695f71461065e578063ecd6aac614610675578063f8a29a881461068c575b600080fd5b34801561013957600080fd5b506101426106cd565b604051808373ffffffffffffffffffffffffffffffffffffffff1673ffffffffffffffffffffffffffffffffffffffff1681526020018281526020019250505060405180910390f35b34801561019757600080fd5b506101a0610856565b604051808215151515815260200191505060405180910390f35b3480156101c657600080fd5b506101cf61098c565b6040518082815260200191505060405180910390f35b3480156101f157600080fd5b5061021060048036038101908080359060200190929190505050610ac0565b005b34801561021e57600080fd5b5061023d60048036038101908080359060200190929190505050610e20565b005b34801561024b57600080fd5b50610274600480360381019080803590602001909291908035906020019092919050505061117f565b6040518080602001828103825283818151815260200191508051906020019060200280838360005b838110156102b757808201518184015260208101905061029c565b505050509050019250505060405180910390f35b3480156102d757600080fd5b506102e0611457565b604051808215151515815260200191505060405180910390f35b34801561030657600080fd5b506103256004803603810190808035906020019092919050505061159f565b005b34801561033357600080fd5b5061033c611a33565b6040518082815260200191505060405180910390f35b34801561035e57600080fd5b506103876004803603810190808035906020019092919080359060200190929190505050611c56565b6040518082815260200191505060405180910390f35b3480156103a957600080fd5b506103b2611ee4565b005b3480156103c057600080fd5b506103c96120e4565b604051808273ffffffffffffffffffffffffffffffffffffffff1673ffffffffffffffffffffffffffffffffffffffff16815260200191505060405180910390f35b34801561041757600080fd5b50610420612109565b604051808215151515815260200191505060405180910390f35b34801561044657600080fd5b5061044f612163565b6040518082815260200191505060405180910390f35b34801561047157600080fd5b5061049060048036038101908080359060200190929190505050612169565b6040518080602001848152602001838152602001828103825285818151815260200191508051906020019080838360005b838110156104dc5780820151818401526020810190506104c1565b50505050905090810190601f1680156105095780820380516001836020036101000a031916815260200191505b5094505050505060405180910390f35b6105c3600480360381019080803590602001908201803590602001908080601f0160208091040260200160405190810160405280939291908181526020018383808284378201915050505050509192919290803590602001908201803590602001908080601f0160208091040260200160405190810160405280939291908181526020018383808284378201915050505050509192919290803590602001909291905050506122e1565b005b3480156105d157600080fd5b506105da6125d5565b6040518082815260200191505060405180910390f35b3480156105fc57600080fd5b506106056125db565b604051808273ffffffffffffffffffffffffffffffffffffffff1673ffffffffffffffffffffffffffffffffffffffff16815260200191505060405180910390f35b34801561065357600080fd5b5061065c612912565b005b34801561066a57600080fd5b50610673612d27565b005b34801561068157600080fd5b5061068a61319f565b005b34801561069857600080fd5b506106cb600480360381019080803590602001909291908035906020019092919080359060200190929190505050613715565b005b60008060016000600260003373ffffffffffffffffffffffffffffffffffffffff1673ffffffffffffffffffffffffffffffffffffffff16815260200190815260200160002054815260200190815260200160002060080160009054906101000a900460ff161515156107a8576040517f08c379a000000000000000000000000000000000000000000000000000000000815260040180806020018281038252601e8152602001807f43616e6e6f74207573652066726f6d206472697665722061646472657373000081525060200191505060405180910390fd5b600460003373ffffffffffffffffffffffffffffffffffffffff1673ffffffffffffffffffffffffffffffffffffffff16815260200190815260200160002060000160009054906101000a900473ffffffffffffffffffffffffffffffffffffffff16600460003373ffffffffffffffffffffffffffffffffffffffff1673ffffffffffffffffffffffffffffffffffffffff16815260200190815260200160002060010154915091509091565b600060016000600260003373ffffffffffffffffffffffffffffffffffffffff1673ffffffffffffffffffffffffffffffffffffffff16815260200190815260200160002054815260200190815260200160002060080160009054906101000a900460ff16151515610930576040517f08c379a00000000000000000000000000000000000000000000000000000000081526004018080602001828103825260138152602001807f4e6f7420612076616c696420616464726573730000000000000000000000000081525060200191505060405180910390fd5b6000600460003373ffffffffffffffffffffffffffffffffffffffff1673ffffffffffffffffffffffffffffffffffffffff1681526020019081526020016000206001015414156109845760019050610989565b600090505b90565b600060016000600260003373ffffffffffffffffffffffffffffffffffffffff1673ffffffffffffffffffffffffffffffffffffffff16815260200190815260200160002054815260200190815260200160002060080160009054906101000a900460ff161515610a65576040517f08c379a00000000000000000000000000000000000000000000000000000000081526004018080602001828103825260138152602001807f4e6f7420612076616c696420616464726573730000000000000000000000000081525060200191505060405180910390fd5b60016000600260003373ffffffffffffffffffffffffffffffffffffffff1673ffffffffffffffffffffffffffffffffffffffff16815260200190815260200160002054815260200190815260200160002060030154905090565b60016000600260003373ffffffffffffffffffffffffffffffffffffffff1673ffffffffffffffffffffffffffffffffffffffff16815260200190815260200160002054815260200190815260200160002060080160009054906101000a900460ff16151515610b98576040517f08c379a00000000000000000000000000000000000000000000000000000000081526004018080602001828103825260138152602001807f4e6f7420612076616c696420616464726573730000000000000000000000000081525060200191505060405180910390fd5b60026001600083815260200190815260200160002060070154141515610c26576040517f08c379a00000000000000000000000000000000000000000000000000000000081526004018080602001828103825260118152602001807f43616e6e6f742063616e63656c206e6f7700000000000000000000000000000081525060200191505060405180910390fd5b60011515600460003373ffffffffffffffffffffffffffffffffffffffff1673ffffffffffffffffffffffffffffffffffffffff16815260200190815260200160002060020160009054906101000a900460ff161515141515610cf1576040517f08c379a00000000000000000000000000000000000000000000000000000000081526004018080602001828103825260198152602001807f43616e6e6f742072656d6f76652072657175657374206e6f770000000000000081525060200191505060405180910390fd5b6001806000838152602001908152602001600020600701819055506000600460003373ffffffffffffffffffffffffffffffffffffffff1673ffffffffffffffffffffffffffffffffffffffff16815260200190815260200160002060020160006101000a81548160ff02191690831515021790555060006003600083815260200190815260200160002060006101000a81548173ffffffffffffffffffffffffffffffffffffffff021916908373ffffffffffffffffffffffffffffffffffffffff1602179055507f40512d111ae54cd5b31ac14330c11c0f63bbd51c8c523fa5dca765fb1e51d02533604051808273ffffffffffffffffffffffffffffffffffffffff1673ffffffffffffffffffffffffffffffffffffffff16815260200191505060405180910390a150565b60016000600260003373ffffffffffffffffffffffffffffffffffffffff1673ffffffffffffffffffffffffffffffffffffffff16815260200190815260200160002054815260200190815260200160002060080160009054906101000a900460ff16151515610ef8576040517f08c379a00000000000000000000000000000000000000000000000000000000081526004018080602001828103825260138152602001807f4e6f7420612076616c696420616464726573730000000000000000000000000081525060200191505060405180910390fd5b600180600083815260200190815260200160002060070154141515610f85576040517f08c379a000000000000000000000000000000000000000000000000000000000815260040180806020018281038252600e8152602001807f447269766572206973206275737900000000000000000000000000000000000081525060200191505060405180910390fd5b60001515600460003373ffffffffffffffffffffffffffffffffffffffff1673ffffffffffffffffffffffffffffffffffffffff16815260200190815260200160002060020160009054906101000a900460ff161515141515611050576040517f08c379a00000000000000000000000000000000000000000000000000000000081526004018080602001828103825260128152602001807f43616e6e6f742072657175657374206e6f77000000000000000000000000000081525060200191505060405180910390fd5b6001600460003373ffffffffffffffffffffffffffffffffffffffff1673ffffffffffffffffffffffffffffffffffffffff16815260200190815260200160002060020160006101000a81548160ff021916908315150217905550336003600083815260200190815260200160002060006101000a81548173ffffffffffffffffffffffffffffffffffffffff021916908373ffffffffffffffffffffffffffffffffffffffff160217905550600260016000838152602001908152602001600020600701819055507f7302695c29e5b28566cefd8ed22997a6ac1bca8d68899aaa48f4565e4fdf98c633604051808273ffffffffffffffffffffffffffffffffffffffff1673ffffffffffffffffffffffffffffffffffffffff16815260200191505060405180910390a150565b60608060008060008060016000600260003373ffffffffffffffffffffffffffffffffffffffff1673ffffffffffffffffffffffffffffffffffffffff16815260200190815260200160002054815260200190815260200160002060080160009054906101000a900460ff16151515611260576040517f08c379a000000000000000000000000000000000000000000000000000000000815260040180806020018281038252601e8152602001807f43616e6e6f74207573652066726f6d206472697665722061646472657373000081525060200191505060405180910390fd5b60001515600460003373ffffffffffffffffffffffffffffffffffffffff1673ffffffffffffffffffffffffffffffffffffffff16815260200190815260200160002060020160009054906101000a900460ff16151514151561132b576040517f08c379a00000000000000000000000000000000000000000000000000000000081526004018080602001828103825260178152602001807f43616e6e6f7420726571756573742072696465206e6f7700000000000000000081525060200191505060405180910390fd5b600560405190808252806020026020018201604052801561135b5781602001602082028038833980820191505090505b50945060009350600192505b60055483111515611449576001600084815260200190815260200160002060040154880360016000858152602001908152602001600020600401548903029150600160008481526020019081526020016000206005015487036001600085815260200190815260200160002060050154880302905060648183011280156114035750600180600085815260200190815260200160002060070154145b1561143c5782858581518110151561141757fe5b90602001906020020181815250508380600101945050600584141561143b57611449565b5b8280600101935050611367565b849550505050505092915050565b600060016000600260003373ffffffffffffffffffffffffffffffffffffffff1673ffffffffffffffffffffffffffffffffffffffff16815260200190815260200160002054815260200190815260200160002060080160009054906101000a900460ff161515611530576040517f08c379a00000000000000000000000000000000000000000000000000000000081526004018080602001828103825260138152602001807f4e6f7420612076616c696420616464726573730000000000000000000000000081525060200191505060405180910390fd5b600360016000600260003373ffffffffffffffffffffffffffffffffffffffff1673ffffffffffffffffffffffffffffffffffffffff168152602001908152602001600020548152602001908152602001600020600701541415611597576001905061159c565b600090505b90565b60016000600260003373ffffffffffffffffffffffffffffffffffffffff1673ffffffffffffffffffffffffffffffffffffffff16815260200190815260200160002054815260200190815260200160002060080160009054906101000a900460ff161515611676576040517f08c379a00000000000000000000000000000000000000000000000000000000081526004018080602001828103825260138152602001807f4e6f7420612076616c696420616464726573730000000000000000000000000081525060200191505060405180910390fd5b600073ffffffffffffffffffffffffffffffffffffffff1660016000600260003373ffffffffffffffffffffffffffffffffffffffff1673ffffffffffffffffffffffffffffffffffffffff16815260200190815260200160002054815260200190815260200160002060010160009054906101000a900473ffffffffffffffffffffffffffffffffffffffff1673ffffffffffffffffffffffffffffffffffffffff1614151515611790576040517f08c379a000000000000000000000000000000000000000000000000000000000815260040180806020018281038252600e8152602001807f43616e6e6f7420656e64206e6f7700000000000000000000000000000000000081525060200191505060405180910390fd5b806004600060016000600260003373ffffffffffffffffffffffffffffffffffffffff1673ffffffffffffffffffffffffffffffffffffffff16815260200190815260200160002054815260200190815260200160002060010160009054906101000a900473ffffffffffffffffffffffffffffffffffffffff1673ffffffffffffffffffffffffffffffffffffffff1673ffffffffffffffffffffffffffffffffffffffff16815260200190815260200160002060010181905550600060036000600260003373ffffffffffffffffffffffffffffffffffffffff1673ffffffffffffffffffffffffffffffffffffffff16815260200190815260200160002054815260200190815260200160002060006101000a81548173ffffffffffffffffffffffffffffffffffffffff021916908373ffffffffffffffffffffffffffffffffffffffff1602179055506001806000600260003373ffffffffffffffffffffffffffffffffffffffff1673ffffffffffffffffffffffffffffffffffffffff16815260200190815260200160002054815260200190815260200160002060070181905550600060016000600260003373ffffffffffffffffffffffffffffffffffffffff1673ffffffffffffffffffffffffffffffffffffffff16815260200190815260200160002054815260200190815260200160002060010160006101000a81548173ffffffffffffffffffffffffffffffffffffffff021916908373ffffffffffffffffffffffffffffffffffffffff1602179055507f1f49d355ae64bf9983c86bfc1fc4bd17826613f13338334e139492f2279e84d033604051808273ffffffffffffffffffffffffffffffffffffffff1673ffffffffffffffffffffffffffffffffffffffff16815260200191505060405180910390a150565b600060016000600260003373ffffffffffffffffffffffffffffffffffffffff1673ffffffffffffffffffffffffffffffffffffffff16815260200190815260200160002054815260200190815260200160002060080160009054906101000a900460ff16151515611b0d576040517f08c379a00000000000000000000000000000000000000000000000000000000081526004018080602001828103825260138152602001807f4e6f7420612076616c696420616464726573730000000000000000000000000081525060200191505060405180910390fd5b600073ffffffffffffffffffffffffffffffffffffffff16600460003373ffffffffffffffffffffffffffffffffffffffff1673ffffffffffffffffffffffffffffffffffffffff16815260200190815260200160002060000160009054906101000a900473ffffffffffffffffffffffffffffffffffffffff1673ffffffffffffffffffffffffffffffffffffffff16141515611c4e5760026000600460003373ffffffffffffffffffffffffffffffffffffffff1673ffffffffffffffffffffffffffffffffffffffff16815260200190815260200160002060000160009054906101000a900473ffffffffffffffffffffffffffffffffffffffff1673ffffffffffffffffffffffffffffffffffffffff1673ffffffffffffffffffffffffffffffffffffffff168152602001908152602001600020549050611c53565b600090505b90565b600080600080600060016000600260003373ffffffffffffffffffffffffffffffffffffffff1673ffffffffffffffffffffffffffffffffffffffff16815260200190815260200160002054815260200190815260200160002060080160009054906101000a900460ff16151515611d36576040517f08c379a000000000000000000000000000000000000000000000000000000000815260040180806020018281038252601e8152602001807f43616e6e6f74207573652066726f6d206472697665722061646472657373000081525060200191505060405180910390fd5b60001515600460003373ffffffffffffffffffffffffffffffffffffffff1673ffffffffffffffffffffffffffffffffffffffff16815260200190815260200160002060020160009054906101000a900460ff161515141515611e01576040517f08c379a00000000000000000000000000000000000000000000000000000000081526004018080602001828103825260178152602001807f43616e6e6f7420726571756573742072696465206e6f7700000000000000000081525060200191505060405180910390fd5b600192505b60055483111515611ed757600160008481526020019081526020016000206004015487036001600085815260200190815260200160002060040154880302915060016000848152602001908152602001600020600501548603600160008581526020019081526020016000206005015487030290506064818301128015611ea25750600180600085815260200190815260200160002060070154145b15611eca57611ec7846001600086815260200190815260200160002060030154613959565b93505b8280600101935050611e06565b8394505050505092915050565b60016000600260003373ffffffffffffffffffffffffffffffffffffffff1673ffffffffffffffffffffffffffffffffffffffff16815260200190815260200160002054815260200190815260200160002060080160009054906101000a900460ff161515611fbb576040517f08c379a00000000000000000000000000000000000000000000000000000000081526004018080602001828103825260138152602001807f4e6f7420612076616c696420616464726573730000000000000000000000000081525060200191505060405180910390fd5b6001806000600260003373ffffffffffffffffffffffffffffffffffffffff1673ffffffffffffffffffffffffffffffffffffffff16815260200190815260200160002054815260200190815260200160002060070154141515612087576040517f08c379a000000000000000000000000000000000000000000000000000000000815260040180806020018281038252600e8152602001807f447269766572206973206275737900000000000000000000000000000000000081525060200191505060405180910390fd5b600060016000600260003373ffffffffffffffffffffffffffffffffffffffff1673ffffffffffffffffffffffffffffffffffffffff16815260200190815260200160002054815260200190815260200160002060070181905550565b6000809054906101000a900473ffffffffffffffffffffffffffffffffffffffff1681565b600080600260003373ffffffffffffffffffffffffffffffffffffffff1673ffffffffffffffffffffffffffffffffffffffff16815260200190815260200160002054111561215b5760019050612160565b600090505b90565b60065481565b606060008060008411801561218057506005548411155b15156121f4576040517f08c379a00000000000000000000000000000000000000000000000000000000081526004018080602001828103825260148152602001807f496e76616c6964206964206f662064726976657200000000000000000000000081525060200191505060405180910390fd5b6001600085815260200190815260200160002060000160016000868152602001908152602001600020600301546001600087815260200190815260200160002060060154828054600181600116156101000203166002900480601f0160208091040260200160405190810160405280929190818152602001828054600181600116156101000203166002900480156122cd5780601f106122a2576101008083540402835291602001916122cd565b820191906000526020600020905b8154815290600101906020018083116122b057829003601f168201915b505050505092509250925092509193909250565b60016000600260003373ffffffffffffffffffffffffffffffffffffffff1673ffffffffffffffffffffffffffffffffffffffff16815260200190815260200160002054815260200190815260200160002060080160009054906101000a900460ff161515156123b9576040517f08c379a00000000000000000000000000000000000000000000000000000000081526004018080602001828103825260138152602001807f4e6f7420612076616c696420616464726573730000000000000000000000000081525060200191505060405180910390fd5b6006543410151515612433576040517f08c379a000000000000000000000000000000000000000000000000000000000815260040180806020018281038252601d8152602001807f496e73756666696369656e7420526567697374726174696f6e2046656500000081525060200191505060405180910390fd5b600160055401600581905550600554600260003373ffffffffffffffffffffffffffffffffffffffff1673ffffffffffffffffffffffffffffffffffffffff1681526020019081526020016000208190555061012060405190810160405280848152602001600073ffffffffffffffffffffffffffffffffffffffff16815260200183815260200160008152602001600081526020016000815260200182815260200160008152602001600115158152506001600060055481526020019081526020016000206000820151816000019080519060200190612515929190613972565b5060208201518160010160006101000a81548173ffffffffffffffffffffffffffffffffffffffff021916908373ffffffffffffffffffffffffffffffffffffffff1602179055506040820151816002019080519060200190612579929190613972565b50606082015181600301556080820151816004015560a0820151816005015560c0820151816006015560e082015181600701556101008201518160080160006101000a81548160ff021916908315150217905550905050505050565b60055481565b600060016000600260003373ffffffffffffffffffffffffffffffffffffffff1673ffffffffffffffffffffffffffffffffffffffff16815260200190815260200160002054815260200190815260200160002060080160009054906101000a900460ff1615156126b4576040517f08c379a00000000000000000000000000000000000000000000000000000000081526004018080602001828103825260138152602001807f4e6f7420612076616c696420616464726573730000000000000000000000000081525060200191505060405180910390fd5b600073ffffffffffffffffffffffffffffffffffffffff1660016000600260003373ffffffffffffffffffffffffffffffffffffffff1673ffffffffffffffffffffffffffffffffffffffff16815260200190815260200160002054815260200190815260200160002060010160009054906101000a900473ffffffffffffffffffffffffffffffffffffffff1673ffffffffffffffffffffffffffffffffffffffff161415156127cd576040517f08c379a000000000000000000000000000000000000000000000000000000000815260040180806020018281038252601c8152602001807f43616e6e6f742072657175657374207768696c652064726976696e670000000081525060200191505060405180910390fd5b600260016000600260003373ffffffffffffffffffffffffffffffffffffffff1673ffffffffffffffffffffffffffffffffffffffff1681526020019081526020016000205481526020019081526020016000206007015414151561289a576040517f08c379a00000000000000000000000000000000000000000000000000000000081526004018080602001828103825260158152602001807f43616e6e6f742067657452657175657374206e6f77000000000000000000000081525060200191505060405180910390fd5b60036000600260003373ffffffffffffffffffffffffffffffffffffffff1673ffffffffffffffffffffffffffffffffffffffff16815260200190815260200160002054815260200190815260200160002060009054906101000a900473ffffffffffffffffffffffffffffffffffffffff16905090565b60016000600260003373ffffffffffffffffffffffffffffffffffffffff1673ffffffffffffffffffffffffffffffffffffffff16815260200190815260200160002054815260200190815260200160002060080160009054906101000a900460ff161515156129ea576040517f08c379a00000000000000000000000000000000000000000000000000000000081526004018080602001828103825260138152602001807f4e6f7420612076616c696420616464726573730000000000000000000000000081525060200191505060405180910390fd5b600073ffffffffffffffffffffffffffffffffffffffff16600460003373ffffffffffffffffffffffffffffffffffffffff1673ffffffffffffffffffffffffffffffffffffffff16815260200190815260200160002060000160009054906101000a900473ffffffffffffffffffffffffffffffffffffffff1673ffffffffffffffffffffffffffffffffffffffff1614151515612af1576040517f08c379a000000000000000000000000000000000000000000000000000000000815260040180806020018281038252600a8152602001807f43616e6e6f74207061790000000000000000000000000000000000000000000081525060200191505060405180910390fd5b7f8c22f554c81b54107cd95e734e4ef45767214974a540f34ea4a4f8c3fc7b13c3600460003373ffffffffffffffffffffffffffffffffffffffff1673ffffffffffffffffffffffffffffffffffffffff16815260200190815260200160002060000160009054906101000a900473ffffffffffffffffffffffffffffffffffffffff16600460003373ffffffffffffffffffffffffffffffffffffffff1673ffffffffffffffffffffffffffffffffffffffff16815260200190815260200160002060010154604051808373ffffffffffffffffffffffffffffffffffffffff1673ffffffffffffffffffffffffffffffffffffffff1681526020018281526020019250505060405180910390a16000600460003373ffffffffffffffffffffffffffffffffffffffff1673ffffffffffffffffffffffffffffffffffffffff168152602001908152602001600020600101819055506000600460003373ffffffffffffffffffffffffffffffffffffffff1673ffffffffffffffffffffffffffffffffffffffff16815260200190815260200160002060000160006101000a81548173ffffffffffffffffffffffffffffffffffffffff021916908373ffffffffffffffffffffffffffffffffffffffff1602179055506000600460003373ffffffffffffffffffffffffffffffffffffffff1673ffffffffffffffffffffffffffffffffffffffff16815260200190815260200160002060020160006101000a81548160ff021916908315150217905550565b60016000600260003373ffffffffffffffffffffffffffffffffffffffff1673ffffffffffffffffffffffffffffffffffffffff16815260200190815260200160002054815260200190815260200160002060080160009054906101000a900460ff161515612dfe576040517f08c379a00000000000000000000000000000000000000000000000000000000081526004018080602001828103825260138152602001807f4e6f7420612076616c696420616464726573730000000000000000000000000081525060200191505060405180910390fd5b600073ffffffffffffffffffffffffffffffffffffffff1660016000600260003373ffffffffffffffffffffffffffffffffffffffff1673ffffffffffffffffffffffffffffffffffffffff16815260200190815260200160002054815260200190815260200160002060010160009054906101000a900473ffffffffffffffffffffffffffffffffffffffff1673ffffffffffffffffffffffffffffffffffffffff16141515612f17576040517f08c379a000000000000000000000000000000000000000000000000000000000815260040180806020018281038252601c8152602001807f43616e6e6f742072657175657374207768696c652064726976696e670000000081525060200191505060405180910390fd5b600260016000600260003373ffffffffffffffffffffffffffffffffffffffff1673ffffffffffffffffffffffffffffffffffffffff16815260200190815260200160002054815260200190815260200160002060070154141515612fe4576040517f08c379a00000000000000000000000000000000000000000000000000000000081526004018080602001828103825260118152602001807f43616e6e6f742072656a656374206e6f7700000000000000000000000000000081525060200191505060405180910390fd5b6001806000600260003373ffffffffffffffffffffffffffffffffffffffff1673ffffffffffffffffffffffffffffffffffffffff1681526020019081526020016000205481526020019081526020016000206007018190555060006004600060036000600260003373ffffffffffffffffffffffffffffffffffffffff1673ffffffffffffffffffffffffffffffffffffffff16815260200190815260200160002054815260200190815260200160002060009054906101000a900473ffffffffffffffffffffffffffffffffffffffff1673ffffffffffffffffffffffffffffffffffffffff1673ffffffffffffffffffffffffffffffffffffffff16815260200190815260200160002060020160006101000a81548160ff021916908315150217905550600060036000600260003373ffffffffffffffffffffffffffffffffffffffff1673ffffffffffffffffffffffffffffffffffffffff16815260200190815260200160002054815260200190815260200160002060006101000a81548173ffffffffffffffffffffffffffffffffffffffff021916908373ffffffffffffffffffffffffffffffffffffffff160217905550565b60016000600260003373ffffffffffffffffffffffffffffffffffffffff1673ffffffffffffffffffffffffffffffffffffffff16815260200190815260200160002054815260200190815260200160002060080160009054906101000a900460ff161515613276576040517f08c379a00000000000000000000000000000000000000000000000000000000081526004018080602001828103825260138152602001807f4e6f7420612076616c696420616464726573730000000000000000000000000081525060200191505060405180910390fd5b600073ffffffffffffffffffffffffffffffffffffffff1660016000600260003373ffffffffffffffffffffffffffffffffffffffff1673ffffffffffffffffffffffffffffffffffffffff16815260200190815260200160002054815260200190815260200160002060010160009054906101000a900473ffffffffffffffffffffffffffffffffffffffff1673ffffffffffffffffffffffffffffffffffffffff1614151561338f576040517f08c379a000000000000000000000000000000000000000000000000000000000815260040180806020018281038252601c8152602001807f43616e6e6f742072657175657374207768696c652064726976696e670000000081525060200191505060405180910390fd5b600260016000600260003373ffffffffffffffffffffffffffffffffffffffff1673ffffffffffffffffffffffffffffffffffffffff1681526020019081526020016000205481526020019081526020016000206007015414151561345c576040517f08c379a00000000000000000000000000000000000000000000000000000000081526004018080602001828103825260118152602001807f43616e6e6f7420616363657074206e6f7700000000000000000000000000000081525060200191505060405180910390fd5b60036000600260003373ffffffffffffffffffffffffffffffffffffffff1673ffffffffffffffffffffffffffffffffffffffff16815260200190815260200160002054815260200190815260200160002060009054906101000a900473ffffffffffffffffffffffffffffffffffffffff1660016000600260003373ffffffffffffffffffffffffffffffffffffffff1673ffffffffffffffffffffffffffffffffffffffff16815260200190815260200160002054815260200190815260200160002060010160006101000a81548173ffffffffffffffffffffffffffffffffffffffff021916908373ffffffffffffffffffffffffffffffffffffffff160217905550600360016000600260003373ffffffffffffffffffffffffffffffffffffffff1673ffffffffffffffffffffffffffffffffffffffff16815260200190815260200160002054815260200190815260200160002060070181905550336004600060036000600260003373ffffffffffffffffffffffffffffffffffffffff1673ffffffffffffffffffffffffffffffffffffffff16815260200190815260200160002054815260200190815260200160002060009054906101000a900473ffffffffffffffffffffffffffffffffffffffff1673ffffffffffffffffffffffffffffffffffffffff1673ffffffffffffffffffffffffffffffffffffffff16815260200190815260200160002060000160006101000a81548173ffffffffffffffffffffffffffffffffffffffff021916908373ffffffffffffffffffffffffffffffffffffffff1602179055507f63086e1a2add7023f65e44471f60f64fb52ba9986e7ffad254a48894002ae63933604051808273ffffffffffffffffffffffffffffffffffffffff1673ffffffffffffffffffffffffffffffffffffffff16815260200191505060405180910390a1565b60016000600260003373ffffffffffffffffffffffffffffffffffffffff1673ffffffffffffffffffffffffffffffffffffffff16815260200190815260200160002054815260200190815260200160002060080160009054906101000a900460ff1615156137ec576040517f08c379a00000000000000000000000000000000000000000000000000000000081526004018080602001828103825260138152602001807f4e6f7420612076616c696420616464726573730000000000000000000000000081525060200191505060405180910390fd5b8160016000600260003373ffffffffffffffffffffffffffffffffffffffff1673ffffffffffffffffffffffffffffffffffffffff168152602001908152602001600020548152602001908152602001600020600401819055508060016000600260003373ffffffffffffffffffffffffffffffffffffffff1673ffffffffffffffffffffffffffffffffffffffff168152602001908152602001600020548152602001908152602001600020600501819055508260016000600260003373ffffffffffffffffffffffffffffffffffffffff1673ffffffffffffffffffffffffffffffffffffffff168152602001908152602001600020548152602001908152602001600020600301819055506001806000600260003373ffffffffffffffffffffffffffffffffffffffff1673ffffffffffffffffffffffffffffffffffffffff16815260200190815260200160002054815260200190815260200160002060070181905550505050565b6000818311613968578161396a565b825b905092915050565b828054600181600116156101000203166002900490600052602060002090601f016020900481019282601f106139b357805160ff19168380011785556139e1565b828001600101855582156139e1579182015b828111156139e05782518255916020019190600101906139c5565b5b5090506139ee91906139f2565b5090565b613a1491905b80821115613a105760008160009055506001016139f8565b5090565b905600a165627a7a72305820a50a6484fc9b0d00a1655ffa16b780943470405c2b1f741ded891993159621dc0029",
  "source": "pragma solidity ^0.4.24;\n\ncontract Uber {\n\n  address public owner;\n  \n  struct Driver {\n    string name;\n    address customerAddr;\n    string license;\n    uint farePerKm;\n    int latitude;\n    int longitude;\n    uint phoneNo;\n    int status;\n    bool valid;\n  }\n\n  struct Customer {\n    address driverAddr;\n    uint amountToPay;\n    bool isBusy;\n  }\n  \n  mapping(uint => Driver)  driverList;\n  mapping (address => uint) mapDriver;\n  mapping(uint => address) reqList;\n  mapping (address => Customer) customer;\n\n  event Collected(address sender,uint amount);\n  event CabBooked(address sender);\n  event RequestSent(address sender);\n  event RequestCancel(address sender);\n  event TripEnded(address sender);\n\n\n  uint public numDrivers;\n  uint public regFee;\n\n  //status = 0,1,2,3  new,ready,onrequest,accepted\n\n  modifier restricted() {\n    if (msg.sender == owner) _;\n  }\n\n  constructor(uint _regFee) public {\n    owner = msg.sender;\n    regFee = _regFee;\n  }\n\n  function registerDriver(string _name,string _license,uint _phoneno) public payable {\n      require (!driverList[mapDriver[msg.sender]].valid,\"Not a valid address\");\n      require (msg.value >= regFee,\"Insufficient Registration Fee\");\n            \n      numDrivers = numDrivers + 1;\n      mapDriver[msg.sender] = numDrivers;\n      driverList[numDrivers] = Driver({\n        name : _name,\n        customerAddr : address(0),\n        license : _license,\n        farePerKm : 0,\n        latitude : 0,\n        longitude : 0,\n        phoneNo : _phoneno,\n        status : 0,\n        valid  : true\n      });\n  }\n \n  function getDriverDetails (uint id) public view returns(string,uint,uint)  {\n    require (id >0 && id <=numDrivers,\"Invalid id of driver\");\n\n    return (driverList[id].name,driverList[id].farePerKm,driverList[id].phoneNo);\n  }\n\n  function getCustomerDetails() public view returns(address,uint)  {\n    require (!driverList[mapDriver[msg.sender]].valid,\"Cannot use from driver address\");\n    \n    return (customer[msg.sender].driverAddr,customer[msg.sender].amountToPay);\n  }\n  \n \n  \n  function max(uint a, uint b) private pure returns (uint) {\n        return a > b ? a : b;\n  }\n\n  function getEstimatedFare (int _latitude,int _longitude) public view returns(uint res)  {\n    require (!driverList[mapDriver[msg.sender]].valid,\"Cannot use from driver address\");\n    require (customer[msg.sender].isBusy==false,\"Cannot request ride now\");\n    \n    uint fare;\n    for(uint i=1;i<=numDrivers;i++){\n        int disLat = (_latitude - driverList[i].latitude) * (_latitude - driverList[i].latitude);\n        int disLon = (_longitude - driverList[i].longitude) * (_longitude - driverList[i].longitude);\n        if(disLat + disLon < 100 && driverList[i].status==1)\n          {\n            fare = max(fare,driverList[i].farePerKm);\n          }\n      }\n    return fare;  \n  }\n  \n\n  function searchDrivers(int _latitude,int _longitude) public view returns(uint[]){\n      require (!driverList[mapDriver[msg.sender]].valid,\"Cannot use from driver address\");\n      require (customer[msg.sender].isBusy==false,\"Cannot request ride now\");\n      //returns driver id\n      uint[] memory requestList = new uint[](5);\n      uint count = 0;\n      for(uint i=1;i<=numDrivers;i++){\n        int disLat = (_latitude - driverList[i].latitude) * (_latitude - driverList[i].latitude);\n        int disLon = (_longitude - driverList[i].longitude) * (_longitude - driverList[i].longitude);\n        if(disLat + disLon < 100 && driverList[i].status==1)\n          {\n            requestList[count] = i;\n            count++;\n            if(count==5)\n              break;\n          }\n      } \n      return requestList;\n  }\n\n  //Called by user\n  function sendRequest (uint id) public {\n    require (!driverList[mapDriver[msg.sender]].valid,\"Not a valid address\");\n    require (driverList[id].status==1,\"Driver is busy\");\n    require (customer[msg.sender].isBusy==false,\"Cannot request now\");\n\n    customer[msg.sender].isBusy = true; \n    reqList[id] = msg.sender;\n    driverList[id].status = 2;       \n    emit RequestSent(msg.sender);        \n  }\n\n  //Called by user\n  function cancelRequest(uint id) public {\n    require (!driverList[mapDriver[msg.sender]].valid,\"Not a valid address\");\n    require (driverList[id].status==2,\"Cannot cancel now\");\n    require (customer[msg.sender].isBusy==true,\"Cannot remove request now\");\n\n    driverList[id].status = 1;\n    customer[msg.sender].isBusy = false;\n    reqList[id] = address(0);\n    emit RequestCancel(msg.sender);\n  }\n  \n  //Called by driver\n  function getRequest() public view returns(address)  {\n    require (driverList[mapDriver[msg.sender]].valid,\"Not a valid address\");\n    require (driverList[mapDriver[msg.sender]].customerAddr==address(0),\"Cannot request while driving\");\n    require (driverList[mapDriver[msg.sender]].status==2,\"Cannot getRequest now\");\n    \n    return reqList[mapDriver[msg.sender]];  \n  }\n  \n  //Called by driver\n  function acceptRequest() public {\n    require (driverList[mapDriver[msg.sender]].valid,\"Not a valid address\");\n    require (driverList[mapDriver[msg.sender]].customerAddr==address(0),\"Cannot request while driving\");\n    require (driverList[mapDriver[msg.sender]].status==2,\"Cannot accept now\");\n\n    driverList[mapDriver[msg.sender]].customerAddr = reqList[mapDriver[msg.sender]];\n    driverList[mapDriver[msg.sender]].status = 3;\n    customer[reqList[mapDriver[msg.sender]]].driverAddr = msg.sender;\n    emit CabBooked(msg.sender);\n  }\n\n  //Called by driver\n  function rejectRequest() public {\n    require (driverList[mapDriver[msg.sender]].valid,\"Not a valid address\");\n    require (driverList[mapDriver[msg.sender]].customerAddr==address(0),\"Cannot request while driving\");\n    require (driverList[mapDriver[msg.sender]].status==2,\"Cannot reject now\");\n\n    driverList[mapDriver[msg.sender]].status = 1;\n    customer[reqList[mapDriver[msg.sender]]].isBusy = false;\n    reqList[mapDriver[msg.sender]] = address(0);\n  }\n\n  //called by driver\n  function isAccepted() public view returns(bool res)  {\n    require (driverList[mapDriver[msg.sender]].valid,\"Not a valid address\");\n    if(driverList[mapDriver[msg.sender]].status==3)\n      return true;\n    else\n      return false;  \n  }\n  \n  function cabBooked() public view returns(uint res){\n    require (!driverList[mapDriver[msg.sender]].valid,\"Not a valid address\");\n    if(customer[msg.sender].driverAddr!=address(0))\n      return mapDriver[customer[msg.sender].driverAddr];\n    else\n      return 0;      \n  }\n  \n\n  function updateDriverDetails(uint _fareperkm,int _latitude,int _longitude) public {\n    require (driverList[mapDriver[msg.sender]].valid,\"Not a valid address\");\n\n    driverList[mapDriver[msg.sender]].latitude = _latitude;\n    driverList[mapDriver[msg.sender]].longitude = _longitude;\n    driverList[mapDriver[msg.sender]].farePerKm = _fareperkm;\n    driverList[mapDriver[msg.sender]].status = 1;\n  }\n\n  function quitDriving() public {\n    require (driverList[mapDriver[msg.sender]].valid,\"Not a valid address\");\n    require (driverList[mapDriver[msg.sender]].status==1,\"Driver is busy\");\n\n    driverList[mapDriver[msg.sender]].status = 0;\n  }\n\n  function isDriverValid() public view returns(bool res) {\n    if(mapDriver[msg.sender]>0)\n      return true;\n    else\n      return false;  \n  }\n  \n   \n  function endTrip(uint cost) public {\n    require (driverList[mapDriver[msg.sender]].valid,\"Not a valid address\");\n    require (driverList[mapDriver[msg.sender]].customerAddr!=address(0),\"Cannot end now\");\n    \n    customer[driverList[mapDriver[msg.sender]].customerAddr].amountToPay = cost;\n    reqList[mapDriver[msg.sender]] = address(0);\n    driverList[mapDriver[msg.sender]].status = 1;\n    driverList[mapDriver[msg.sender]].customerAddr = address(0);\n    emit TripEnded(msg.sender);\n  }\n\n  function paidDriver() public {\n    require (!driverList[mapDriver[msg.sender]].valid,\"Not a valid address\");\n    require (customer[msg.sender].driverAddr!=address(0),\"Cannot pay\");\n\n    emit Collected(customer[msg.sender].driverAddr,customer[msg.sender].amountToPay);\n    customer[msg.sender].amountToPay = 0;\n    customer[msg.sender].driverAddr = address(0);\n    customer[msg.sender].isBusy = false; \n  }\n\n  function isPaid() public view returns(bool res) {\n    require (!driverList[mapDriver[msg.sender]].valid,\"Not a valid address\");\n    if(customer[msg.sender].amountToPay == 0)\n      return true;\n     else\n     return false; \n  }\n\n  function getDriverFare () public view returns(uint res)  {\n    require (driverList[mapDriver[msg.sender]].valid,\"Not a valid address\");\n    \n    return driverList[mapDriver[msg.sender]].farePerKm; \n  }\n  \n  \n  \n\n\n}\n",
  "sourcePath": "/home/vishal/blockchains/Decentralized_Uber/contracts/Uber.sol",
  "compiler": {
    "name": "solc",
    "version": "0.4.24+commit.e67f0147.Emscripten.clang"
  },
  "schemaVersion": "2.0.1",
  "updatedAt": "2018-11-13T05:58:58.094Z"
}